:1010000040640020715C0000E3D90100455C0000F1
:10101000455C0000455C0000455C000000000000ED
:10102000000000000000000000000000AD580000BB
:10103000455C00000000000059580000455C0000BD
:101040005D5900001D4201005D5900005D5900001E
:101050005D5900005D5900005D5900005D590000B8
:101060005D5900005D5900005D5900005D590000A8
:101070005D5900005D5900005D5900005D59000098
:101080005D5900005D5900005D5900005D59000088
:101090005D5900005D5900005D5900005D59000078
:1010A0005D5900005D5900005D5900005D59000068
:1010B0005D5900005D5900005D5900005D59000058
:1010C0005D5900005D5900005D5900005D59000048
:1010D0005D5900005D5900005D5900005D59000038
:1010E0005D5900005D5900005D5900005D59000028
:1010F0005D5900005D5900005D5900005D59000018
:1011000053B94AB9002908BF00281CBF4FF0FF316E
:101110004FF0FF3000F00CB8ADF1080C6DE904CED3
:1011200000F008F8DDF804E0DDE9022304B07047C0
:10113000704700BF2DE9F04786468C460846089E5A
:10114000154674461946002B40F0C2808542B2FA1B
:1011500082F245D94AB1C2F1200300FA02FC2EFA0C
:1011600003F3954043EA0C0C94404FEA154EA8B2A5
:10117000BCFBFEF8230C0EFB18CC08FB00F943EA7D
:101180000C43994528D9EB1808F1FF3704D299454B
:1011900002D9A8F102072B44A3EB0903A4B2B3FBC5
:1011A000FEFC0EFB1C330CFB00F044EA0344A0429F
:1011B00014D92C190CF1FF3304D2A04202D9ACF19E
:1011C00002032C44241A43EA07401EB1D4400023F2
:1011D00034607360BDE8F0874746DDE76346F1E7BA
:1011E00092BB431B01214FEA154EAFB2B3FBFEFC8D
:1011F000200C0EFB1C330CFB07F840EA0343984518
:1012000062D9EB180CF1FF3004D2984502D9ACF149
:1012100002002B44A3EB0803A4B2B3FBFEFC0EFBBD
:101220001C330CFB07F744EA0344A7424ED92C19A0
:101230000CF1FF3304D2A74202D9ACF102032C44D3
:10124000E41B43EA0040C0E7C2F1200320FA03F1A7
:10125000954090402EFA03F303434FEA154EAFB288
:10126000B1FBFEFC0EFB1C10190C0CFB07F841EA4D
:101270000041884504FA02F422D969180CF1FF30C4
:1012800004D2884502D9ACF102002944A1EB08013F
:101290009BB2B1FBFEFC0EFB1C110CFB07F743EAF3
:1012A00001439F420ED9EB180CF1FF3104D29F424B
:1012B00002D9ACF102012B44DB1B41EA004192E769
:1012C0006046E3E76146F7E76046A3E76346B7E7B2
:1012D000834206D916B9002108467BE7C6E900E03B
:1012E000F9E7B3FA83F78FB9834201D3724508D87F
:1012F000BEEB020460EB030301209C461EB90021F3
:1013000068E73846FAE7C6E9004CF8E7C7F1200C71
:10131000BB4022FA0CF41C432EFA0CF120FA0CF319
:10132000B84001434FEA14490EFA07F5B3FBF9F848
:101330001FFA84FE09FB18300B0C08FB0EFA43EA77
:1013400000439A4502FA07F240D9E31808F1FF304A
:1013500004D29A4502D9A8F102002344A3EB0A0360
:1013600089B2B3FBF9F809FB183308FB0EFE41EA1A
:1013700003418E452CD9611808F1FF3304D28E4504
:1013800002D9A8F10203214443EA0040A0FB0298DD
:10139000A1EB0E014145CE46434602D306D14D4551
:1013A00004D2B9EB020E68EB04030138002EA6D07C
:1013B000B5EB0E0261EB030101FA0CFC22FA07F314
:1013C0004CEA0303F940C6E9003198E74046C5E717
:1013D0004346D9E7000000002DE9F843D0E90C3579
:1013E000D0F82C805C193034A0450F46164619D829
:1013F0001D4DA3FB05011AA3D3E90023FFF780FECF
:101400000346A4EB0800A0FB050123F07F4414A3CE
:10141000D3E90023FFF774FE20F07F403C6030608A
:10142000BDE8F883DFF840900DA3D3E90023A8FBC3
:101430000901FFF765FE044605F1300008A3D3E972
:101440000023A0FB0901FFF75BFE24F07F4420F09E
:101450007F403C603060BDE8F88300BFAFF30080A0
:101460008D49FD1A0700000000CA9A3B00000000E9
:10147000002800F042812DE9F04FC94C94F86A2011
:1014800012F001058DB040F0758194F82500FF231E
:1014900000F0030084F8263012F04CFA94F86A0049
:1014A000420727D494F8292094F8353004EB8202BF
:1014B00004EB8303D66AD3F8388086B1B848314646
:1014C0000AF0FCFC33785B0605D5062105F062F8CE
:1014D000002800F05181B24841460AF0EFFC337811
:1014E00013F00E0F40F0A180236A93B10C200DB0D1
:1014F000BDE8F08F2A4604F16B01C0F3C00012F082
:10150000B9FBFF2884F82600CCD0284612F058FA00
:10151000C8E709F043FB8146002800F0528109F03A
:1015200049FB8246002800F049810BF02BFA054662
:10153000002800F04881D0F888004FF6FF732B8513
:1015400005F11C0B002800F01D8105F17C0205F15E
:10155000780105F02BF8B5F8763023F4EF6323F02B
:10156000070343F4887343F00103A5F8763095F838
:10157000393003F03F0363F07F0385F8393095F885
:101580008E3023F0070385F88E3095F83C3023F039
:10159000070385F83C307F23002785F8D2304FF4CD
:1015A000C023C5F880312846C5E91277C5F8887090
:1015B000A5F88C706F86C5F82E7085F83B702F6586
:1015C000A5F88671A5F87C710EF076F885F848715B
:1015D000C5F84C910BF004FD95F88C3160F30203D3
:1015E00085F88C310BF002FD95F88C3160F3C50362
:1015F00085F88C3195F8783167F3410385F87831B7
:10160000012128460CF09EF905F1D4000DF00AFEE8
:10161000C4E9189AC4F820B0C5E905772F70ED61C8
:1016200013F066FB002840F0A98094F824300121D3
:10163000C3F342030DF12B008DF82B3005F040F978
:10164000024600285BD098F8011030460AF002FAF2
:101650005449B4F8687000253123A360C4E90555E6
:101660004DA3D3E9002325706560E560A0FB01016F
:10167000FFF746FD206106F041FC00F109083FB983
:10168000357805F00F05A5F10105B5FA85F56D0969
:1016900094F82400236965F3000010F0010584F834
:1016A000240033D00020404A404F049302250BAE63
:1016B000019305920321CDE9020008960694434662
:1016C000009007972A460B9506F0AAFA314609F0D2
:1016D00005FBA0B9364905914AF2D8330093CDE90C
:1016E0000300CDE9010007970896069443460122BE
:1016F00003210B9506F094FA2EE00AF0F7B8236A5E
:10170000002B3FF4F3AE0AF0AFF8EFE6294A2A487F
:10171000049303F247130694029591211360A7FBEB
:10172000000301FB0731214B07931F4B05934FF635
:10173000FF730992022703930BAE17A3D3E900238B
:101740000B970896FFF7DCFC4346CDE900503A467C
:101750002846032106F00EFA314609F0BFFA0028A8
:10176000CDD194F86A3043F0010384F86A300AF06E
:10177000B7FD60B10020BAE61220B8E60AF074F8AE
:101780000320B4E605F18000C5F88800DDE60120FD
:1017900012F0B2F8EEE700BF8D49FD1A0700000015
:1017A000601E002000CA9A3BD1BA0000C1A200000E
:1017B000FDB50000541E0020002AE784484609F0C9
:1017C000F3F9072093E6504609F0FAF9484609F084
:1017D000EBF9F6E70000000070B590F824308AB00D
:1017E000C3F342030D46044601210DF123001646C2
:1017F0008DF8233005F064F87178024628460AF027
:1018000029F91D491AA3D3E90023A0FB0101FFF721
:1018100077FC23699842054621D21B1A00220192C7
:10182000164A0293164BA21AA3FB02320221920916
:1018300000230A4409AE099112490591CDE9033309
:101840000321D2B206960093184606F05BFA3146A1
:1018500009F044FA38B9256100200AB070BDFBD9FF
:10186000C21A0023DBE70C200AB070BDAFF3008082
:101870008D49FD1A0700000000CA9A3B601E002037
:1018800009CB3D8DC1A2000038B5194C9DF810E080
:1018900094F844C01CF0010522D163F3420C4001CE
:1018A00094F83230A1874FEACE0E0EF0180E00F0F9
:1018B000200040EA0E0023F0380303430D4884F86B
:1018C00032309121A2FB000384F844C001FB0231B5
:1018D00005A3D3E90023FFF713FC2064284638BD95
:1018E0000C25284638BD00BF8D49FD1A07000000B1
:1018F000EC1E0020002AE78410B504469DF808007D
:1019000022844FEA411CC000A17D00F018000CF0B9
:10191000200C4CEA000C0C4821F038014CEA010C78
:10192000A3FB0002912101FB032184F816C004A34C
:10193000D3E90023FFF7E4FB606210BDAFF3008042
:101940008D49FD1A07000000002AE784000000000E
:101950002DE9F047044600F1350190F8440094F871
:101960003230C0F3400060F386138CB084F832301C
:1019700006F004FB94F83220A38F4D48E46102F096
:101980007902002584F832209121A3FB0002C4E9EA
:101990000555257001FB032143A3D3E90023FFF77D
:1019A000AFFB3123A360236C656009339842E56087
:1019B00098BF25643F4D404A98BF03462361651B8D
:1019C000A2FB0525064606F099FA236AC5F307151A
:1019D00000F10907002B46D00DF12C08CDF820802E
:1019E0000694A38F32484FF00009A3FB0002CDF804
:1019F0000C90912101FB0321236904932F4B079342
:101A00002F4B05934FF0020A27A3D3E90023CDF80B
:101A10002CA0FFF775FB104619464FF47A7200238D
:101A2000FFF76EFB0435EDB2CDE9016003213B46C3
:101A30002A46CDF80090484606F0F2F8414609F0F3
:101A40004DF960B994F8443043F0010384F8443010
:101A50000AF00AFA08B300200CB0BDE8F0870C20A9
:101A60000CB0BDE8F0870DF12C08CDE90A332169EF
:101A700043460AAA032001F033F90028AED10B999E
:101A8000104809A3D3E90023A1FB0001FFF738FBAD
:101A90000A9B20F07F471F44A0E7504611F02CFF1F
:101AA000D9E700BFAFF300808D49FD1A07000000A1
:101AB000002AE784EC1E0020398EE338C1A2000022
:101AC000D5C0000000CA9A3B2DE9F04F05468BB007
:101AD0008B46012002219A46144616F033F9002263
:101AE00002218146012004F0B1FD3B494FF4CC7244
:101AF000284604F03BFD461DF6B2384B00953246B1
:101B00000121002006F016F910F0FD0F0CD0344A28
:101B10003449354842F299031BF0FDFE404080F302
:101B200011884FF0030002DF304BA4FB034820462E
:101B300027A3D3E900234146FFF7E2FA2C4B20F01C
:101B40007F47A7FB03310722E01A02FB071168EB6E
:101B500001014FF47A720023FFF7D2FACDE9017048
:101B6000CDF800B008950695296995F939402148C6
:101B70000491214931EA240128BF014605911F4CF7
:101B800007944FF6FE71039153463246012100201F
:101B900006F046F810F0FD0F0CD0114A114912481A
:101BA00042F2AE031BF0B7FE404080F311884FF0C5
:101BB000030002DFB9F1000F02D10BB0BDE8F08FD6
:101BC0000122022110460BB0BDE8F04F04F03EBDEB
:101BD0008D49FD1A07000000380D0020C1C7000024
:101BE0005CFB010020FC0100B0F4010000CA9A3B3C
:101BF0008D49FD1AB52801005D2A010069C7000062
:101C00002DE9F043C469228D4FF6FF739A428DB0DF
:101C100000F08880054620460DF0FEFF95F828303C
:101C2000012B00F01281022B00F0FE80002B00F04F
:101C3000DD8094F84871002F40F0F980E68DB4F80B
:101C40003080002E71D1AA8C08F101060023CDE965
:101C50000A33B6B2002A70D094F93930002BC0F2A2
:101C60004B810023A4F8823195F82630D90740F142
:101C7000F2800023A4F886310DF127023146204678
:101C80000DF054FD743000F04981B4F880312BB16F
:101C9000B34240F210819B1BA4F88031B4F87C3130
:101CA0002BB1B34240F2FE809B1BA4F87C31258E01
:101CB00017B9A84500F0ED800135ADB294F8D130E8
:101CC00013F001065AD1DDE90A130A46002B40F051
:101CD000F080002900F0DF801E461846228DE4695E
:101CE0000694CDE903570532AD4D0290CDE90016BB
:101CF000D2B201210020059506F004F810F0FD0F86
:101D000010D009F02BF884420CD0A64AA649A74867
:101D100040F66B031BF0FFFD404080F311884FF04D
:101D2000030002DF0DB0BDE8F083AA8C4644002317
:101D3000CDE90A33B6B2002A8ED195F82630DA07FB
:101D400097D4B4F88231002B00F08580B34240F282
:101D500006819B1BA4F88231B4F88631002B8BD00E
:101D60009E4280F0EB809B1B9BB20022062BA4F8C6
:101D70008631228600F2AF8001277DE794F9392071
:101D80006FF30003002A84F8D1307ADB94F87600F0
:101D9000C0F3C00100F0070012F008FEB4F86E3086
:101DA000B4F86C10194401F2AD11084480497AA3CB
:101DB000D3E90023A0FB0101FFF7A2F9DDE90A1333
:101DC00020F07F4220692261904235BF161A801AA6
:101DD000002000260A46002B80D151EA060C7FF431
:101DE0007DAF002857D019461E4677E794F88E300D
:101DF00003F01803182B7FF41CAFA18DB4F87E21DB
:101E00008B1D9A42C4BF931F5B1AB4F87A11CCBFE2
:101E10009BB21346994200F09C80A4F87A31A4F852
:101E20007C31A4F8802104E73D2784F84871228D95
:101E3000A4F852211823204684F8503184F86871A0
:101E40000DB0BDE8F0430BF0CFB90023A4F880310A
:101E5000A4F87C31EDE6B4F88631002B80D1628D98
:101E6000B4F8843140F2E24101FB02F242F2107117
:101E700001FB0323013BB3FBF2F39BB2A4F88631D1
:101E80006CE794F87700012100F0070012F090FD54
:101E900084E73D4612E7002D54D000261146304617
:101EA00033461BE70023A4F87C3120460DF0B8FC34
:101EB000FDE6304612E708F0C9FE0146002844D08E
:101EC0000023A4F88031238DC3801B230371006895
:101ED00008F086FEE2E694F939309342BFF6CCAEC4
:101EE000B8F1000F7FF448AFD4F870315A08DB071F
:101EF0004BD4C4F87021BFE628460AAA0BA904F106
:101F0000D409FFF769FA48460DF0CEF958B34846B0
:101F10000DF0CAF958B300232386A2E69DF82730B6
:101F2000218D1822A4F8521184F8502184F86831C8
:101F300020460BF059F90DB0BDE8F083218D182231
:101F40000823EFE7002FA8D1ECE60123A4F88031A5
:101F5000A4E6B4F8801100297FF46BAE5FE7218D11
:101F600018223E23DEE7FF200BF0D8F8CFE7024629
:101F7000D4E91E0104F032FB0028CCD194F83C30A7
:101F8000580744BFA38D23866BE642F00042C4F895
:101F90007021F1E6AFF300808D49FD1A07000000C3
:101FA00029C700005CFB0100C0FC0100B0F4010087
:101FB00000CA9A3B000000002DE9F04F87B0CDE940
:101FC0000432BDF8442003780292BDF84820BDF8E1
:101FD0004080BDF84C50468EB0F82E90B0F810B14D
:101FE000019104460392002B00F0CA80013EB6B274
:101FF000A368D4F80C71721B92B2002B009209DA1C
:10200000E168626823F0004391422CBF7F18BF183B
:10201000A360FF1A009A638D13FB02F39BB2B3FB1C
:10202000F8F218FB02F080B283421FFA82FA80F0C5
:102030009680C01A40F2E2425B4902FB00F0A0FB2E
:10204000010157A3D3E90023FFF75AF820F07F409E
:102050000744D94494F839304D44AD1B554440F2FF
:10206000E246DB09E58506FB08F500F08D80226C71
:102070000099A36CDFF830B102FB1133A36412F0B6
:1020800089FE814694F86C01C0F3420012F084FE90
:10209000059B814406FB03F305FB09F9236509F55C
:1020A0007429424B09F23F29A3FB09394FEA9943AE
:1020B00003FB0AF02364A5EB0309A36C6A0803443D
:1020C000963A934228BF1346C4E911230023C4F86B
:1020D0007431A0FB0B0132A3D3E90023FFF710F802
:1020E000049B3F1A3248A0FB0330800A06FB00F035
:1020F0002BA3D3E90023A0FB0B01FFF701F8064651
:10210000029BA385039BA4F8843129462046A4F8AA
:102110002A800DF045FB274BA18D2B44881DB3FB76
:10212000F5F39AB29042A4F87E2102D2521A063AEE
:1021300092B2019BA4F87A2113B10023A4F886314E
:102140003B464A4631462046FFF7BEFC94F87831BC
:1021500043F0010384F8783107B0BDE8F08F08FB45
:102160001231114840F2E24389B203FB01F1A1FBB5
:1021700000010BA3D3E90023FEF7C2FF3F1A68E773
:102180004E445E44B6B233E7049B0748A3FB00010C
:1021900003A3D3E90023FEF7B3FFA946461CAFE72C
:1021A0008D49FD1A0700000000CA9A3B83DE1B43DD
:1021B0005917B7D17FC3C9012DE9F04F0B681768D4
:1021C000D3F80090037F95B00E46C3F3801300F15F
:1021D0001E010446154612A806228DF83F301BF05A
:1021E00027FC96F81180B8F1FF0F0DF1400B5AD083
:1021F0005A460DF13F01404611F09AF89DF83F30E4
:1022000002338DF83F302146032251F82E3B0A93CA
:1022100005F1080005F1040A1BF00AFC05F118039A
:10222000042204F12A0150460B931BF001FC0B9B86
:10223000052204F13A0118461BF0FAFB0B9B05211D
:10224000184604F03DFB6B7F00F03F0060F3050390
:102250006B7794F83F30C3F30402AA77A28EEA8129
:10226000012803F01F0392B205D91B3303F01F03AB
:102270000B2B00D8EAB90022C9F8142095F82030B9
:102280000A9862F3000385F82030E56801262146AC
:10229000267108F09BFC28682E71294608F0A0FCE6
:1022A00015B0BDE8F08F062212A958461BF0C0FBFE
:1022B000A9E7336800215960E38EEA892B8240F256
:1022C000E24303FB02F20B92638E0D9338460DF04E
:1022D0007BFA94F83F2097F86C11520962F343019E
:1022E00087F86C1112F056FD0C9097F86C01C0F352
:1022F000420012F051FD0C9A0B99104401FB00F0C2
:10230000B94A00F5742000F23F20A2FB00204A08E1
:10231000800C963A6862AA6294F8312040F2E24357
:1023200002FB03F3AB63238FA7F8843138460DF02B
:1023300037FA0B99AD4BAE4AC7F888210B44B3FB73
:10234000F1F39AB2A7F87E21298A881D824204DD22
:10235000C1F57F41FA310A4492B2A7F87A21514679
:10236000042207F5B8701BF063FB234613F81C2FFB
:10237000C2F340120C92DA0700F10E814FF4807321
:10238000A38399F8260011F093FD0146062204F17B
:102390002B00002900F0E68004F124011BF048FB2B
:1023A000B8F1FF0F04F1250000F0DF8012A906222A
:1023B0001BF03EFB9DF83F30A3775946062204F1FF
:1023C0001F001BF035FBEB8963862B8AA386B7F8C9
:1023D0008431E38697F86C31C3F3420384F83830D4
:1023E00038460AF0DBFAA881E08021460A98746832
:1023F00008F0ECFBAB89E3801C2323710C9BD4F821
:102400000080002B40F0B6800C9B2377214640468D
:1024100008F0E6FB95F85B00B5F85080B5F852403F
:10242000012100F0070012F0C3FA444404F2A91499
:10243000DFF8C0818246312320180024A0FB080168
:10244000BB607C6066A3D3E90023FC60FEF758FE06
:1024500020F07F4038610B9B6D6A0D995D1BF3681E
:1024600040F2E24202FB013303F2B241A1EB0A0A5D
:1024700022460221012004F0E9F8484609F0DAFC7E
:102480000246AAFB0801924655A3D3E90023FEF7B2
:1024900037FECDF80490B3685749009120F07F488B
:1024A0000AF102023A3BD2B220464344012105F030
:1024B00083FC01287ED099F82430DB0764D43846A9
:1024C0000AF06CFA4B4BA5FB03A9044644A3D3E9DD
:1024D000002350464946FEF713FE484BB668484A6B
:1024E000079220F07F45A5FB0331BAEB0300454B73
:1024F00005934FF4EF73069708933B694FF0000B79
:10250000CDE903B34FF0070303FB051169EB0101AC
:102510004FF47A720023FEF7F3FD05343A3EE4B23D
:10252000CDE90150CDF800803346224601215846BE
:1025300005F076FB10F0FD0F0CD0334A33493448D8
:1025400040F2DF131BF0E7F9404080F311884FF0B1
:10255000030002DF01220221104604F077F815B0D3
:10256000BDE8F08F1BF06FFA1AE7062200211BF07E
:102570006AFA1FE76B7F43F040036B77504610F019
:10258000D5FC0123E88340E700230122009318468D
:10259000114605F0CFFB92E71B4A1E491C484FF439
:1025A00082731BF0B8F9404080F311884FF00300AC
:1025B00002DFE3E608F0D2FB81453FF47CAF124A2C
:1025C000154913484FF42A731BF0A5F9404080F3D6
:1025D00011884FF0030002DF6DE700BFAFF300800A
:1025E0008D49FD1A0700000083DE1B437FC3C9012C
:1025F000404B4C0000CA9A3B792801008D49FD1AD6
:1026000049280100B5280100DC00020020FC01007F
:10261000B0F4010008F701003801020000000000DA
:102620002DE9F04F8BB0CDE9050104930020BDF8F2
:1026300060309DF85480BDF858A0BDF85CB003939D
:10264000164609F05BFE002800F04B8108F00109F6
:102650000446484605F082FCB9F1000F68D1236AB0
:1026600004F11C020792002B69D0276A3D6897F895
:102670005A00C0F3C00100F0070012F097F9B7F854
:102680005010B7F8523000F2A9100144CE48194456
:10269000A1FB0001CAA3D3E90023FEF731FD20F01E
:1026A0007F402861304611F067F994F833306FF3BA
:1026B000410384F83330FF2384F8343066B3A8F143
:1026C0000203012B40F2118194F84430049A68F31C
:1026D000420384F8443094F8333062F3000384F802
:1026E00033301499062204F124001BF0A1F9039B56
:1026F000238604F11C00DDE9052300210096FFF785
:10270000FBF812F0F5FA002840F0FA802046FFF7B7
:102710001FF90BB0BDE8F08F11F078FD0028CED086
:1027200014990498324611F0A5FA84F83400C6E7EB
:10273000062103F02FFF002891D11220E9E708F0CD
:102740002DFA0790002800F015810AF01BF90546C4
:10275000002800F00C81203004F0C6F805F11C07B9
:10276000002840F0F780032105F1240011F0E4FF78
:10277000D5F88800A5F82CB04FF6FF73A5F82AA06D
:102780002B85002800F0F88005F17C0205F1780126
:1027900003F00CFFB5F8763023F4EF6323F0070362
:1027A00043F4887343F00103A5F8763095F88E3032
:1027B0004FF0000B23F00703012185F88E302846E7
:1027C000C5F888B0A5F88CB00BF0BCF87F2385F86D
:1027D000D230C5F82EB0A5F832B005F1340010F0B3
:1027E00051FB95F8393060F30503012185F8393044
:1027F0000DF1270011F0A0FF039B9DF82720A5F8FD
:102800008431724B85F83BB0A3FB0213DB0803EB6A
:102810004303A2EB830295F83930A98DA5F886B160
:1028200003F03F0385F8393095F83C30A5F87CB1CA
:10283000053223F0030385F83A2085F83C3040F256
:10284000E242634B02FB0AFA4FF4C0225344C5F83C
:102850008021881DB3FBFAF39AB28242A5F87E214B
:1028600002DD063A521A92B2A5F87A2128460CF0F7
:1028700023FF514628460CF093FF079BC5F84C31C7
:1028800095F86C314FF0000A6FF3000385F86C3156
:1028900085F848A10AF0A4FB95F88C3160F3020397
:1028A00085F88C310AF0A2FB95F88C3160F3C503F2
:1028B00085F88C3195F878316AF3410385F87831E1
:1028C00005F1D4000CF0AEFC3123C5F804A0C5F826
:1028D0000CA0AB602762C5E905AA85F800A0ED61F0
:1028E000C5E60C200BB0BDE8F08F002011F068F8B1
:1028F00094F8333043F00203C84684F83330E3E6FB
:10290000256AEB6E63B1334A3349344840F2D5430C
:102910001BF001F8404080F311884FF0030002DF04
:1029200005F1600105F15C0003F044FE0646002855
:1029300035D02F68EE66D7F84C5115B3284608F00D
:1029400033F938460AF024F80023032023620BB041
:10295000BDE8F08F1F4A22492048C3231AF0DBFF4D
:10296000404080F311884FF0030002DFFBE6079838
:1029700008F01AF90720CCE605F18000C5F88800B8
:1029800002E7144A1749154840F2DE431AF0C3FF24
:10299000404080F311884FF0030002DFCEE70D4A7C
:1029A00010490E4840F2D7431AF0B5FF404080F37B
:1029B00011884FF0030002DFBBE700BFAFF30080D8
:1029C0008D49FD1A0700000000CA9A3BABAAAAAACB
:1029D0007FC3C9016801020050FA0100B0F4010090
:1029E000F4F70100ACFB01002DE9F04F07468DB074
:1029F000044617F81C8F0E46154600F124010622E6
:102A00000AA81BF015F894F81C90FB07C8F3C0182F
:102A1000C9F3401900F103810023A383B17C777CC3
:102A200011F0010104F12B004FF0060200F0E180EB
:102A300004F11E011AF0FCFFFF2F04F1250B04F135
:102A40001F0A00F0DF805246384604F11E0110F0E4
:102A50006FFCA37F02330AA95846A37706221AF017
:102A6000E7FF3368D3F80080EB8963862B8AA3865F
:102A7000B8F83030E38612F08BF984F838002F680C
:102A8000384609F08BFF0021A881E08038460CF021
:102A90009BFED6F804A02068214608F097F8AB8981
:102AA000AAF806301C23DAF800408AF80430B9F19D
:102AB000000F40F0C2808AF81C905146204608F072
:102AC0008FF8BB687A6895F85A00B5F80E90F468EC
:102AD000934238BF1346C0F3C0011D4600F0070003
:102AE00040F2E24303FB09F911F060FF20340022B9
:102AF0000221241A012003F0A9FD404609F0D6FB6B
:102B00008246554852A3D3E90023A4FB0001FEF7F7
:102B1000F7FACDF80480B36850490091093520F0E8
:102B20007F480AF104025B1BD2B24344012100201A
:102B300005F042F910F0FD0F0CD0494A49494A48C6
:102B400040F2E6331AF0E7FE404080F311884FF080
:102B5000030002DF4FF0000A534603220121CDF8A3
:102B600000A0504605F0E6F8384609F017FFB368B4
:102B7000044639485D1BA9FB000135A3D3E90023B6
:102B8000FEF7BEFA1946394B0793394B059340F2CD
:102B90001643069708933B690646CDE903A3104602
:102BA00000234FF47A72FEF7ABFA0534E4B2CDE9B4
:102BB0000160CDF800802B4622460121504605F0E9
:102BC0002FF810F0FD0F0CD0254A2649264840F278
:102BD00017431AF0A0FE404080F311884FF0030025
:102BE00002DF01220221104603F030FD0DB0BDE8E6
:102BF000F08F1AF028FFFF2F04F1250B04F11F0AB4
:102C00007FF421AF5846062200211AF01CFF84F8F9
:102C10001E800AA9504606221AF00AFF21E7104A30
:102C20001449114840F263331AF075FE404080F3B6
:102C300011884FF0030002DFEEE66B7F43F04003A4
:102C40006B77281D10F072F94FF00109E88332E725
:102C50008D49FD1A0700000000CA9A3B292A01008D
:102C60006801020020FC0100B0F401002D2A0100DF
:102C70005D2A010008F70100052801D000207047F7
:102C800038B500200D4609F091FE044618B190F9C0
:102C90003930002B01DA002038BD90F87600C0F3FF
:102CA000C00100F0070011F081FE0B4900F5B6509D
:102CB000093007A3D3E90023A0FB0101FEF720FAA6
:102CC00020F07F402860204638BD00BFAFF3008071
:102CD0008D49FD1A0700000000CA9A3B0000000061
:102CE00010B584B003AC9C46009402AB644610F06F
:102CF0001FF8FF2812D0DDE902230D481A44A2FB79
:102D00000003072101FB023107A3D3E90023FEF7EB
:102D1000F7F980302060002004B010BD6FF009008A
:102D2000FAE700BFAFF3008000CA9A3B0000000042
:102D30008D49FD1A000000002DE9F041C5680768C3
:102D40006B686A681B68D489196986B005AB009303
:102D500003AA04AB022003970FF0EAFFFF2830D04C
:102D6000DDE90432244E1344A3FB06014FF00708AB
:102D700008FB03111EA3D3E90023FEF7C1F980303D
:102D800028610398C31B1B021ED4394605F0B8F80E
:102D90000146A0FB060616A3D3E9002308FB016148
:102DA000FEF7AEF92B6918440028286109DB40F2D0
:102DB000E24304FB03F3834203D2C01A8342FCD3F1
:102DC000286106B0BDE8F0810146384605F098F864
:102DD0000146A0FB060606A3D3E9002308FB016118
:102DE000FEF78EF92B69181ADEE700BFAFF30080FB
:102DF00000CA9A3B000000008D49FD1A0000000047
:102E000010B5144605F07AF8214605F079F8034626
:102E100010F4000003D1DC1C092C02D810BD0020E6
:102E200010BD114A1149124840F2D9131AF073FD2E
:102E300010480721A4FB000301FB043108A3D3E9D8
:102E40000023FEF75DF90C4902460C481AF063FDB9
:102E5000404080F311884FF0030002DF012010BDD5
:102E600000CA9A3B000000003804020054F501003B
:102E7000B0F401008D49FD1ABC0502005C0502009A
:102E800038B5044612F040FEA37DA27DC3F3410392
:102E9000013303F00303032B08BF002363F3420253
:102EA00014BF03F125002520A27511F03DFD6368D4
:102EB0000BB123694BB905F021F8C11C002014F0B7
:102EC00049FDBDE8384014F0C3BD14F075FD05465A
:102ED00005F014F8C11C002014F03CFD14F0B8FDFE
:102EE00014F06AFD294605F00BF80B4A034607214A
:102EF000A0FB020201FB032105A3D3E90023FEF797
:102F0000FFF823691B1A236138BD00BFAFF30080AF
:102F100000CA9A3B000000008D49FD1A0000000025
:102F20002DE9F04F89B0044614F042FAC0B250B90E
:102F300011F052FDB848214614F0C8F809B0BDE8B8
:102F4000F04F14F009BA14F053FA054614F06CFC73
:102F5000074614F073FC814614F0AAFE064614F0EE
:102F60008BFE824614F024FCEDB2804614F0FEFB8A
:102F700011F032FD002DDDD0012007F093FF054652
:102F8000002800F0368117F0FF07F6B240F02881E4
:102F9000002E40F0CA804FF0FF093A464B463146BA
:102FA000204612F0D7FF0028C4D02A7F6168002392
:102FB0008DF81B305FFA88F702F00F03002900F04C
:102FC000D380616891F82010880700F1CD80072B2D
:102FD000B0D0A17D090740F19F81002B40F0AB806C
:102FE0006B7F252BA6D8042007F05CFF0028A1D01A
:102FF00014F036FD636A804643B9238C40F2712297
:1030000002FB03F3B0FBF3F203FB120823681A6917
:10301000824B0721A2FB030301FB02317CA3D3E90E
:103020000023FEF76DF86FF44A7C00EB0C03434578
:1030300080D314F08DFB63680593484610F046FF7B
:10304000E37D8046980740F1E181B8F1000F00F080
:10305000DD8141464FF0010B049114F0D7F92B7F2D
:10306000049907AA039205F11E02CDE901B1824637
:103070000146C3F3801300922046002212F084FF21
:10308000504614F03BF914F089F9002840F0CE8145
:103090006348214614F01AF8002F40F0C18162689D
:1030A00092F8203043F0010382F82030A37D43F0F2
:1030B0008003A37507F018FF172303714FF6FF7302
:1030C0000746C380514624222D7F1C301AF0B0FCE5
:1030D0003B7FBC60C5F3401565F345133B7714F0A7
:1030E0006BFC002138610120079D14F01BF9002EB4
:1030F00008BF4FF0FF092D1A7D6187F81990E37D15
:1031000013F0020303D0B8F1000318BF0123BA7E05
:1031100063F30002BA7607F0E7FEF86038683946D4
:1031200009B0BDE8F04F07F00DBF5FFA8AF010F06C
:103130005BFF814631E7012B40F03F816A7F0C2A1B
:103140007FF4F8AE2A7FCDF8009019460023019352
:10315000D20905F12403204612F050FE00287FF426
:1031600042AF2B7F03F00F03002B40F0E5806B7F15
:10317000252B1A463FF6DEAEA17D01F02101202964
:1031800056D0002A3FF4D6AE63682BB12B7F03F0F4
:103190000F03072B7FF4CEAE03209DF81B8007F0B2
:1031A00081FE054600283FF4C5AE07F09DFE4FF6B0
:1031B000FF73EB8005232B71002F40F0B9807F2037
:1031C000AB7E2876002E08BF4FF0FF0968F341035D
:1031D000286885F81990AB76294607F0B3FEA9E672
:1031E000A07D5FFA89F1C0F3C00010F093FE814624
:1031F000D3E60C4A0C490D4840F2CB231AF08BFB66
:10320000404080F311884FF0030002DFBBE600BFAF
:1032100000CA9A3B00000000C15B01008D49FD1A05
:10322000B15D0100780602002C060200B0F4010036
:103230006268002A40F0BF809620049214F014FBCC
:10324000049A104614F05AFA032007F02BFE804629
:1032500000283FF46FAE07F047FE4FF6FF73A8F863
:103260000630052388F80430002F40F0D5807F23F6
:10327000002E88F8183014BF4B46FF2388F8193009
:1032800098F81A30D8F800006FF34103414688F8E7
:103290001A3007F057FE14F0B9F8064603223378C7
:1032A00062F3030333702B7F3278C3F3801363F32D
:1032B000C7120C2332707370484610F007FEE37D8E
:1032C0009A07014640F1C080002800F0BD803378A5
:1032D000304643F0400300F8023B06221AF0A8FBF8
:1032E000062205F11E0106F108001AF0A1FB304686
:1032F00014F004F814F052F8002840F0B48014F0F0
:10330000A7FBA37D5F4843F001032146A37509B0E5
:10331000BDE8F04F13F0DABEB9F1FF0F8DF81C9045
:10332000C2F3801855D0227E91453FF456AE1BE77C
:1033300014F030FAC0B243E7062B3FF418AF452132
:10334000D94011F001013FD1012B12D16B7F0C2B21
:103350007FF4F0AD2A7FCDF800900DF11B030193AF
:10336000D20905F12403204612F048FD08B16A7F16
:1033700007E72B7F03F00F03042B7FF4DBAD6B7F9C
:10338000252B3FF6D7ADA37DDB077FF5D3AD14F03A
:103390003DF82B7F0278C3F38013B3EBD21F7FF489
:1033A000C9AD0830062205F11E011AF031FB0028D4
:1033B0007FF4C0ADDBE71A46E3E6062B3FF4D7AE59
:1033C0004522DA40D107D4D56A7F252A7FF6D9AEC7
:1033D000B0E505F11E0A07AA5146404610F0BAFEB4
:1033E00000283FF4BEAEE37D03F0010343457FF4C4
:1033F000B8AE5146062204F108001AF009FB2B7FF3
:1034000003F00F0300283FF4E8ADADE6A27D04F120
:103410001901C2F3801B1FE614F0BCF9C3B227E701
:1034200014F0B8F9059B83F8B60038E6164A174938
:10343000174840F2A3431AF06EFA404080F3118817
:103440004FF0030002DF23E6A37D3278C3F380133D
:10345000304663F3861200F8022B04F119010622AC
:103460001AF0E6FA3CE7084A0849094840F22753AF
:103470001AF051FA404080F311884FF0030002DF48
:103480003DE700BFD55B010078060200340602006C
:10349000B0F4010008B5044608461BF058F921466F
:1034A0000246044819F0BAFE034819F0B7FE01209D
:1034B00000F030FD140B0200430B020038B5002071
:1034C00001F0B6F820B1BDE83840164819F0A6BEA4
:1034D000154819F0A3FE15481BF049F810B9144817
:1034E00019F09CFE114802F075F8014620B1BDE8C4
:1034F0003840104819F092BE19F034FB0E490F4DB8
:103500000246642002F0BEF80446284619F086FE02
:10351000204602F085F800214FF4004019F0EEFA41
:10352000F3E700BF580B02006D0B0200ECF0010046
:10353000880B0200B30B020095340000CE0B020092
:10354000014B1B68184700BF1000002007B50B4651
:10355000002102460091034800F02AF903B05DF80B
:1035600004FB00BF4135000030B587B00025CDE930
:1035700003010446009503A90548059500F018F9D4
:10358000DDE904309842B8BF255407B030BD00BF14
:10359000F7D101002DE9F047058B04462807904636
:1035A00011D4022905F0070540F0CD8020461AF01D
:1035B0002CF878B10138218B042811D8DFE800F00D
:1035C000C3106D85950001290CBF45F0100545F02D
:1035D0002005258388F31188BFF36F8FBDE8F0873E
:1035E00001F0070AAA4500F0A6800027B9463E462A
:1035F000A368002B00F0BD8041F00801218388F30F
:103600001188BFF36F8FA168002900F0BB800D689F
:10361000002900F0B780D1F8048033465246204696
:10362000C047002D76D02B6829461D46F0E701F0F3
:1036300007035A1F012A1BD8002221F00701062B7D
:10364000276889B2C4E9002209D13B4603E0628BB6
:10365000013262831B68002BF9D141F00201218302
:10366000204619F0D2FF00287BD041F0200177E0FE
:10367000042B0AD121F0070189B22183204619F0D9
:10368000C4FF10B141F020012183218B01F0070A12
:10369000AA4550D00027B946AAE7236921F00701BF
:1036A00041F00601062DD3F8009021832DD1B9F108
:1036B000000F40D041F00801218388F31188BFF347
:1036C0006F8F3A492046C84729E021F00701236956
:1036D00041F0040189B2042DD3F804902183E6D08F
:1036E00000273E464FF0040A82E721F007012369D4
:1036F00041F0050189B2052DD3F808902183D6D079
:1037000000273E464FF0050A72E700273E464FF07D
:10371000060A6DE72B4687E7B9F1000FD1D14FF0CC
:103720002003EFF3118883F31288BFF36F8F238B8D
:1037300023F008032383258BEA062ED525F01003FA
:10374000238305F007056669218B002EBFF66FAF56
:1037500000232768C4E9003321F0070141F001018B
:103760002183218B01F0070AAA454FF000097FF45D
:103770003FAF002F9BD041F00801218388F31188CF
:10378000BFF36F8F002FC7D03D683946334652468E
:10379000204619F066FF2F46F4E7AB067FF51AAF17
:1037A00025F02003238305F00705FFE68FD60100EF
:1037B0002DE9F04F814695B08B4617461C460025F3
:1037C000387808B9284658E37B1C2528039306D08F
:1037D0005946C8470028C0F250830135FBE1182242
:1037E00000210EA81AF02FF97B78252B7DD000231D
:1037F000781C98469E469C461E46014610F8012BB2
:103800002B2A00F0A18000F29880202A00F09F80EF
:10381000232A00F09F802BB19DF8403043F04003F5
:103820008DF84030B8F1000F05D09DF8403043F0DE
:1038300020038DF84030BEF1000F05D09DF84030D8
:1038400043F010038DF84030BCF1000F05D09DF817
:10385000403043F008038DF840302EB19DF84030E1
:1038600043F004038DF840309DF8403003F04400ED
:10387000442803D16FF386138DF840309DF8403013
:103880002A2A43F080038DF840307FD19DF84120F3
:1038900042F001024B1C8DF841201A782E2A9DF827
:1038A00041200CBF0121002161F341028DF841202C
:1038B00078D15A782A2A6ED0013300224FF00A0CB0
:1038C000194611F8010BA0F13006092E40F295803F
:1038D0009DF840101292C1F3400040EAD2700A46AF
:1038E00060F341028DF840205CE0BA1C03928DF831
:1038F00043309DF84130DA0740F12E8154F8048BB3
:10390000B8F1000F07DA9DF8402042F004028DF86C
:103910004020C8F100085E0740F1278154F804AB4D
:10392000BAF1000F80F226819DF841306FF3410318
:103930008DF841304FF0FF3A1CE12D2A0DD0302A8E
:103940007FF469AF012358E74FF0010C55E74FF0C2
:10395000010E52E74FF001084FE701264DE70EFB3D
:103960000262303A0346184610F8016BA6F1300C9B
:10397000BCF1090FF3D999428FD09DF840101192F4
:10398000D20F62F341018DF8401086E70B4600220A
:103990004FF00A0EE7E79DF8412042F004028DF84F
:1039A000412002331A786C2A47D02BD8682A31D0AC
:1039B0006A2A4BD04C2A51D01A4612F8013B039286
:1039C000782B9DF841208DF8433000F2BE806D2B9E
:1039D00051D8692B00F2B980572B67D8412B03D0FF
:1039E000453B022B00F2B1809DF84230042262F385
:1039F00002038DF84230012373E00CFB0202303ADF
:103A00000B465DE7742A25D07A2AD5D19DF841204E
:103A100006210CE05A78682A9DF8412006D1012140
:103A200061F3C6028DF841200233C5E7022161F33C
:103A3000C6028DF841200133BEE75A786C2A9DF802
:103A4000412001D10421EBE70321F0E79DF841205B
:103A50000521ECE79DF841200721E8E7BDF840206B
:103A600022F4F04222F0020242F4804242F00202CA
:103A7000ADF84020DFE76E3BD9B201238B4040F226
:103A800082410B4237D113F0240F51D1D8075CD5B6
:103A90009DF84230032161F302038DF8423002F0B9
:103AA0007803A3F140014B424B411AE0A3F15801C6
:103AB000C9B2012000FA01F111F4624F94D140F62D
:103AC000010631421DD111F4043F3ED09DF8423031
:103AD00060F3020302F07802402A8DF8423034D0BD
:103AE00000239DF84020C2F340010B4363F34102E1
:103AF0008DF84020FDE69DF84230022161F302037B
:103B0000E8E79DF84210022002F0780260F302011B
:103B1000402A8DF8421002BF9DF8401041F001018B
:103B20008DF84010632BDBD1131E18BF0123D8E79B
:103B30009DF84230032161F3020312F0780F8DF8F3
:103B4000423014BF01230023CBE79DF8403043F0FF
:103B500001038DF84030C3E79DF94020002AB4BF2F
:103B6000DDF844804FF0FF38D5E698077FF5E2AEE8
:103B7000DDF848A09DF841100023CDE911339DF8F0
:103B8000423003F00703012BC1F3C30133D1CB1E35
:103B9000042B04D8DFE803F02146462121002368E6
:103BA00001294FEAE372CDE90E321CD19DF938307C
:103BB000DA17CDE90E3204349DF8403013F00306D5
:103BC00050D0039B3A465946484619F08DFE0028CE
:103BD000C0F253810544039FF2E554F8043BDA1721
:103BE000CDE90E32E8E70229E5D11AB243F3C0333A
:103BF000CDE90E23DFE7022B24D1CB1E042B04D802
:103C0000DFE803F0181010181800012954F8043BDD
:103C10004FF0000214D00229CDE90E32CCD19BB274
:103C20000E93C9E7073424F00704F4E80223CDE932
:103C30000E23C1E754F8043B0E9300230F93BBE718
:103C4000DBB2CDE7042B08D1073424F00704D4E914
:103C500000230834CDE90E23AEE7032BACD154F892
:103C6000043BDDE79DF843007828B4D862281CD8CF
:103C700025283FF4ADAD5828ADD10DF136030093A2
:103C8000DDE90E0108AB10AA19F0E8FDBAF1000F4A
:103C9000074680F29A80002F9DD00DF13603D81B85
:103CA000002E00F0C1800130BEE06338152892D8A4
:103CB00001A252F820F000BF8D3D00009F3D0000A2
:103CC000D73B0000D73B0000D73B0000D73B0000AC
:103CD0009F3D0000D73B0000D73B0000D73B0000D2
:103CE000D73B00002D3E0000C53D0000EB3D00002D
:103CF000D73B0000D73B0000113D0000D73B000040
:103D0000C53D0000D73B0000D73B0000C53D00008B
:103D1000BAF1000F0E9F35DB5146384619F06FFEA1
:103D200007EB000A002F3FF456AF00269DF8423003
:103D300013F01002059200F0938002305B06119A96
:103D400048BF129B0492104448BFC018B8F1000F3E
:103D500040F3A0809DF84020A8EB0008C2F3800348
:103D60005007069300F19680510640F189803EB1DC
:103D700059463046C84700287FDB069B01351E4662
:103D800030227EE0384619F033FEC9E70E9B8DF8ED
:103D90002030002608AF0DF1210A0120C6E71907DF
:103DA0005CBFC3F300135E01DDE90E2348BF2B2681
:103DB000002BBFF662AF524263EB4303CDE90E2303
:103DC0002D265AE7002658E700269DF840200DF1E1
:103DD0003603DB1B6FF386129A458DF840207FF681
:103DE0005AAFAAEB0303119355E70E9890B30DF168
:103DF0003603009310AA08AB002119F02FFDBDF87F
:103E0000423003F0EF0343F4F04343F01003BAF100
:103E1000000F0746ADF84230D6DA00283FF4DBAE9B
:103E20000DF13603181A00269A467FE70E9B0729E4
:103E30003FF6D1AEDFE801F00C04060C08080C0CCC
:103E40001D70C8E61D80C6E6EA17C3E90052C2E647
:103E50001D60C0E62E4F064607F1050A052065E7FE
:103E60001A0748BF013069E7079310460692594682
:103E7000C8470028DDE9062304DA15B0BDE8F08F55
:103E8000202243461946002903F1FF33ECDC454468
:103E90006D1A98462EB159463046C8470028ECDBCB
:103EA00001359DF84230DA0601D41B0705D5594685
:103EB0003020C8470028E0DB0135059B33B19DF871
:103EC00043005946C8470028D7DB0135049E2E44DD
:103ED00005E059463020C8470028CEDB0135731B6A
:103EE000002BF6DC53463A465946484619F0FCFC8E
:103EF0000028C2DB0544A844A8EB0503002B7FF78C
:103F00006AAE59462020C8470028B6DB0135F3E7E2
:103F1000FB0B020008B54FF02002EFF3118382F390
:103F20001288BFF36F8F01F0C9FF034819F076F9CB
:103F300001F0E2FBFCE700BF010C020016F050B8F4
:103F4000F0B40C4B0C4E5F6A0C4BB34203D36FF0D2
:103F50008500F0BC70475D68BD4209D31C693CB167
:103F600095F802C00579AC4502D12346F0BC18474C
:103F70002433EAE770110020F8080020B008002080
:103F80002DE9F047134CDFF85080DFF850900546DC
:103F90000E461746444503D36FF08500BDE8F08711
:103FA0006268D9F824309A4212D3A36983B1907819
:103FB0002979884205D13A4631462846BDE8F0477E
:103FC00018475279012A03D13A4631462846984784
:103FD0002434DFE7B0080020F8080020701100202A
:103FE0002DE9F0410B4CDFF8308005460E461746B0
:103FF000444502D36FF0850009E063690BB92434AE
:10400000F6E73A463146284698470028F7D1BDE8FA
:10401000F08100BFB0080020F808002010B5044669
:1040200019F04EFE10F1780F00D050B9054A204625
:1040300019F07FFCD2F8C43023EA0003C2F8C43080
:10404000002010BD7011002002480822002119F044
:10405000FABC00BF2B12002070B50B4B0B4CA342D7
:1040600001D3002070BD196A1E7F00220439D5B229
:10407000AE4201D82433F2E7013211F832508542C2
:10408000F5D10120EEE700BFB0080020F8080020BD
:1040900008B509480378C3F341130A3350F82330B5
:1040A0003BB100F1080200F110019847C043C00F76
:1040B00008BD1846FCE700BF7011002004282DE958
:1040C000F14FDFF8989004460F4616D001282DD105
:1040D000DFF88C8098F8B93043B300F0BDFD214D76
:1040E0004D4520D2D5F820B04FF0000A2B7F5FFA63
:1040F0008AF6B34204D82435F2E7FFF7A5FFE7E7D5
:104100000BEBC6060AF1010A307919F0D9FD024617
:10411000307919F00EFCD8F8C430002A23EA0003E5
:10412000C8F8C430E2DA002388F8B9300D4D4D45A7
:1041300008D30B4B1B6A6BB13946204601B0BDE872
:10414000F04F1847EB681BB13A462146284698477E
:104150002435ECE701B0BDE8F08F00BFF80800207F
:1041600070110020B008002073B5C4B263060D467C
:104170008DF8074007D02046FFF76EFF78B10D4B52
:1041800093F8BA0058B10B4E204655B114F05AFCC2
:10419000F3691BB10DF1070108209847012002B017
:1041A00070BD14F077FCF369002BF7D00DF1070117
:1041B0000920F2E77011002073B586788DF8006051
:1041C000037942791B4C43EA0223ADF80230C378ED
:1041D000304603F003038DF8043019F0AAFBD4F83D
:1041E000C4301842054608D0304600F017FD30466E
:1041F000FFF714FF962018F09BFC684614F0FEFBB6
:1042000010F1780F03D010B1002002B070BD9DF8FE
:10421000000014F07BFC10F1780F01D00028F3D1DE
:10422000D4F8C43001202B4384F8B900C4F8C4305A
:10423000EBE700BF701100202DE9F047924DAB690C
:1042400004460E461746C3B9207800F01F00012827
:1042500076D0022800F0DC8000BB94F900103A68A8
:10426000637800292EDA062B0CD0082B25D0ABB9A9
:10427000537001231370022303E198470028E3D110
:1042800000200DE06388190A0A1F012A8C4605D90F
:10429000072903D8DAB26B6A1C781CB96FF01500D5
:1042A000BDE8F0875D78654503D1824200F0E48087
:1042B00001302344F0E71B78E3E095F8BA3013703F
:1042C0000123DEE0052B11D0092BE7D163886E6A4C
:1042D000002B32D1FFF7B8FE638885F8BA30EB695E
:1042E000002BCDD0694903209847C9E7A07814F086
:1042F00073FB0028C4D0D1E77378042B10D0052BB2
:1043000011D0022B04D177796388BB4208BF01200A
:1043100033781E443378002BEED10028BED0D9E785
:1043200096F80380F4E76388BB42F1D1B8F1000F3F
:10433000EED13046FFF740FFEAE7FF27B846E9E74E
:1043400095F8BA30D7F800C0002BA7D06F6AA288C2
:1043500094F804E03B46187800289FD05978022949
:1043600004D193F80480F04500F292800344F2E710
:104370008CF800308CF80130316081E71F4493E005
:104380000B2B8BD100264FF0FF08C146B24606E04A
:104390007B78042B0FD0052B21D03B781F443B7832
:1043A000002BF5D1EB6913B1514607209847002E39
:1043B0007FF466AF72E797F80280A38897F80390BE
:1043C0009845EAD163889945E7D1B8F1070F1CD821
:1043D00005EB0803BA4683F8BB900126DDE7A38806
:1043E0004345DAD1A3784B450AD0BE78304600F079
:1043F00015FC3046FFF712FEB0FA80F67609CCE7DE
:104400003846FFF7D9FE0646C7E7BA460026C4E796
:1044100094F900206378002A18DA002B7FF43EAF6D
:1044200024793F6863060AD02046FFF715FE00286E
:104430003FF434AF95F8BA30002B3FF42FAF394634
:10444000204614F047FB00237B7014E7012B08D0B3
:10445000032B7FF423AF6388002B7FF41FAF012170
:1044600003E0618800297FF419AFA088FFF77CFE84
:1044700000287FF405AF11E702293B607FF41BAFF2
:104480005B883360FCE600BF701100202A12002018
:1044900094F9000063780028BFF672AF002B3FF458
:1044A00067AF0A2B7FF4FAAE3B78002B3FF4F6AEF1
:1044B000797804297FF462AFB9788A427FF45EAFDD
:1044C000072A96BF5219002392F8BB308CF80030AF
:1044D000F6E600BF13B5134C237DCBB9E268A168A3
:1044E000019201AB802019F032FA019AA3681344BB
:1044F000A360E3689B1AE36043B93AB12369E28899
:104500009A4203DD9B0601D10123237502B010BD41
:1045100000231A4619468020237502B0BDE81040DA
:1045200014F01EBB7011002030B585B00023024688
:104530000D460193002858D1002935D108220B4699
:104540000DEB020119F0D5FB002804DA802014F0ED
:1045500079FA05B030BD2A4C029A2260039A626053
:1045600004F13802A2609DF90820BDF80E302575CF
:10457000002AC4E903550ADB802B04D9802014F0FB
:1045800061FA0020E3E713B1C4E90333E1E7FFF781
:104590007FFD0028DAD0E28823699A42D4BFE26026
:1045A000E360FFF797FFD4E7154CD4E90215002D1F
:1045B00001AB04DC19F09DFB0028CADAC6E72A46E5
:1045C00019F097FB0028D9DB019AA3681344A36074
:1045D000E3689B1AE360002BBBD104F13803A360AE
:1045E000FFF756FD0028DCD1B0E78028B1D1044B9D
:1045F000DA68002AD5D11B7D002BD2D1A9E700BFF4
:1046000070110020054B064A9A62064ADA62064A91
:104610001A63064A58629A610020704770110020A0
:1046200039420000413F0000E13F0000813F0000AF
:104630002DE9F34104463B4D3B484FF0FF324FF02C
:10464000FF3317F0C1FC95F8B860002E67D13748EA
:104650002C62E86114F09EFB14F08CF9041E42DB1E
:1046600000F04AFB041E3EDB40236846ADF80230F2
:104670008DF804608DF8006014F0C0F9041E32DB80
:10468000802768468DF8007014F0B8F9041E2ADB04
:104690002749304614F06AFB041E24DB24493846BF
:1046A00014F064FB041E1EDB224CDFF88C804445B2
:1046B00020D3002014F02AFA041E14DBD5F8C430ED
:1046C000802043F00103C5F8C43014F01FFA041E23
:1046D00009DBD5F8C43043F48033C5F8C430012376
:1046E00085F8B8300024104817F0E8FC204602B0E6
:1046F000BDE8F081276A0026227FF3B29A4201D8F2
:104700002434D4E707EBC30257F83310107914F0C0
:104710002DFB01360028EFD04FF0FF34E3E76FF0B8
:104720007704E0E7701100206C060020BD40000017
:1047300029450000B0080020F808002010B50A4BF9
:1047400093F8B8404CB900F055F848B1FFF75AFF5C
:104750002046BDE81040FFF76BBF6FF0770010BD3B
:104760004FF0FF30FBE700BF7011002030B51F4B4A
:104770008BB005AA03F1100518685968144603C4E4
:104780000833AB422246F7D11B7823701022002158
:1047900001A819F058F912220021154819F053F90F
:1047A000102101A819F0CCFB00281BDD0828B8BF98
:1047B0000820093801AB0E491A18002012F8013FF1
:1047C0000AAC04EB131403F00F0328336B440130DD
:1047D00014F8144C13F8143C0C7008284B7001F1B9
:1047E0000201EBD102480BB030BD00BF350C020016
:1047F000183500202DE9F04F644C85B000264FF0AD
:10480000011BB1463546B24623782BB9604B0234C2
:104810009C42F3D15D481CE06378052B05D8DFE8A6
:1048200003F07B04037B0725A24623781C44EBE7B7
:10483000E378002BF9D1A37873B109F101095FFA8C
:1048400089F9F2E76A68944209D024359D42F9D388
:10485000002005B0BDE8F08F4E4D4F4BF6E7AB683A
:10486000002BEAD0494620469847E6E7002DEFD0D6
:10487000002301212A7F9342EAD22A6AA77802EB19
:10488000C3021079874201D00133F3E70127E078B2
:1048900000F003008DF80C00207994F805C040EA80
:1048A0000C20ADF80A0094F9020000285FFA87F89E
:1048B00027DA07F1100001FA00F010EA0B0F27D1F8
:1048C00048F080008DF8080002A8CDE9003219F008
:1048D000DFF9DDE900320121D0B99DF80830A3707D
:1048E00013F0800F18BF08F11008137118BF5FFA9A
:1048F00088F80B460CBFBB4001FA08F34BEA030BE8
:1049000093E701FA07F010EA0B0F01D14046D9E70F
:104910000137102FBBD1B7E7032E1DD1FFF726FFBC
:10492000074668B119F064F8804648B11B4819F091
:104930005FF8804504D142463946A01C19F078F84A
:1049400023786FF00201E218091B04EB5303D142F4
:1049500013D50136F6B268E7002EF1D1BAF1000F97
:104960003FF476AFA4EB0A038AF80230C3F30723BF
:104970008AF803308AF80490EBE74FF0000002F861
:10498000010C13F8010902F8020DE0E718080020F5
:10499000AE080020B0080020F8080020350C020006
:1049A00010B5094B00211A461C78844205D15C6879
:1049B0001CB1482303FB012010BD0131042903F180
:1049C0004803F1D10020F7E7381200202DE9F34128
:1049D00050F8303C10F8346C1033044610D10369A1
:1049E00050F8282C99073CD502BB13F0040304D1DE
:1049F0001A461946304618F0AAFF002344F8303C06
:104A000054F8303C10330ED054F8205C5DB154F8AB
:104A1000247C54F81C8C19F091FE00284CD02E48B0
:104A200021461AF001F802B0BDE8F08150F82C1CC4
:104A300001AB304618F08BFF10B16FF01503DDE7C6
:104A4000019A54F82C3C134444F82C3C54F8283C6C
:104A50009B1A44F8283C54F8243C134444F8243C62
:104A6000CEE750F82C1C01AB304614F0F5F80028C6
:104A7000E3D1019D54F82C3C2B4444F82C3C54F8D1
:104A8000283C5B1B44F8283C54F8243C2B4444F855
:104A9000243C002DB1D0304614F082F9B5FBF0F380
:104AA00003FB1055002DA8D154F8283C002BA4D0AE
:104AB000304614F019F9A3E744F8200CA4F11800CB
:104AC00017F06CFB54F8303C8C33ACD0424639467E
:104AD0003046A847A7E700BFC81000204B1E012B97
:104AE00073B506460D460FD8FFF75AFF044668B95E
:104AF000012D09D101AB01220DF10301304614F063
:104B0000ABF8019B002BF5D102B070BD19F016FE79
:104B100004F1340108B1012D05D1084602B0BDE809
:104B20007040FFF753BF034802B0BDE8704019F072
:104B30007BBF00BFC81000202DE9F74F80460091D1
:104B40001746994618F025FF044600285DD14FF01E
:104B50002003EFF3118B83F31288BFF36F8F2C497F
:104B6000002208460023019117F03EFB019968B925
:104B7000DFF8A0A0482262430AEB02056E6816F136
:104B8000100F12D1084617F009FB06E00134042C7F
:104B900001F14801E4D16FF00B068BF31188BFF3EC
:104BA0006F8F304603B0BDE8F08F0AF802800C9A90
:104BB000009B6A610D9AAA616FF00F022861C5E936
:104BC0000237C5F844906A60404614F0E9F858B1DD
:104BD000404614F0E5F8B7FBF0F202FB10771FB186
:104BE0006A6C42F004026A6419F0020F08D048228D
:104BF00002FB04A10848343119F016FF0026CCE767
:104C0000404614F071F80646C7E76FF00F06C8E794
:104C10005412002038120020C810002010B54FF0A8
:104C20002003EFF3118483F31288BFF36F8FFFF734
:104C3000B7FE50B14368103307D16FF08B03436068
:104C400000F13401034819F0EFFE84F31188BFF33B
:104C50006F8F10BDC810002070B50F4C04254FF0A9
:104C60002003EFF3118683F31288BFF36F8F63681D
:104C7000103307D16FF08B030848636004F13401EF
:104C800019F0D2FE86F31188BFF36F8F013D04F156
:104C90004804E4D170BD00BF38120020C8100020C5
:104CA000F0B504468BB00D4616461F460122002182
:104CB00004A819F019FE03AB01930E4B0093324682
:104CC0003B4629462046FFF737FF88B940F6CD42DC
:104CD000002304A817F088FA48B12046FFF760FEC9
:104CE00010B143681033F1D06FF08B0000E00398EF
:104CF0000BB0F0BD89D9010070B50A4C0A4E0025F1
:104D00003146204619F073FE0122A4F11800114625
:104D1000013519F0E9FD042D04F14804F0D100201B
:104D200070BD00BF6C120020CD490000014B99708E
:104D3000704700BF33080020024B013183F8201078
:104D4000704700BF3308002007B5037890F90000D2
:104D5000002815DB03F06003202B11D10B680193B1
:104D60001368009300220023002001F043FB01465A
:104D700048B1064818F044FF002003B05DF804FB7A
:104D80006FF08500F9E76FF00B00F6E7C80600202A
:104D900038B50B4B1D7B4FF0FF304FF0FF3101F06A
:104DA00001F904460028F6D0228AE168002328464B
:104DB00018F0CDFD0028F7D1204613F039FAEAE7C4
:104DC0002C0000202DE9F041114F124EDFF84880F1
:104DD0004FF0FF324FF0FF33384618F00BFF044618
:104DE00001F0D4F9420605460DD50121204601F017
:104DF00059F9EB0707D54046012101F003F9204698
:104E000013F016FAE4E72146304618F0F9FEDFE722
:104E1000E0060020B006002009500000F8B5114E51
:104E2000114F4FF0FF324FF0FF33304618F0E2FEE3
:104E3000044601F0ABF9420605460DD50021204697
:104E400001F030F9EB0707D50021384601F0DAF818
:104E5000204613F0EDF9E4E7204601F007FB0028B7
:104E6000DFD0F5E7C80600206D4E000013B50278CC
:104E7000114C013AD2B2042A034698BF0F4801F1FF
:104E8000FF3103F1010398BF805C009388BF0620C7
:104E900001914FF0FF324FF0FF3301F0ABFA206089
:104EA00001F0E4FA28B1206802B0BDE8104013F028
:104EB000BFB902B010BD00BF60130020D60C0200C5
:104EC000F7B5274C274D0022114601AB064618F0D6
:104ED00056FD2168019A01AB3046294418F04FFD78
:104EE0002368019A134423602A4600262F46B342C2
:104EF00003D012F8011BAC291BD14EB11A48314620
:104F000001F068F823689A1B0023934213D12360B1
:104F10002268072A0BD9BB7808339A4207D30020AE
:104F200001F02AF8054658B9104801F053F803B0CB
:104F3000F0BD0136DBE7A95D05F8011B0133E4E7AD
:104F4000BA78084908320C3018F072FE284601F091
:104F500031F82368BA78083B9B1A2360E7E700BF63
:104F6000641300202A350020620C0200840C020029
:104F700070B51A4E1A4D4FF0FF334FF0FF323046E6
:104F800018F038FEBFF35B8F2B68BFF35B8F0446CE
:104F900043B9237E012B13D0032B19D0204613F0E5
:104FA00047F9E8E718F0EDFCBFF35B8F2B68BFF320
:104FB0005B8F002BEDD00021212017F09FFDF3E740
:104FC0000848228AE16800790623FFF769FEE5E7D1
:104FD0000448228AE168007D0223F6E7B00600203B
:104FE0006813002014000020064BBFF35B8F0022E3
:104FF00053E8001F43E800200028F9D1BFF35B8F7E
:10500000704700BF6813002070B503780E4E023B56
:10501000DBB2032B98BF0D4A044694BFD05C062038
:105020004FF0FF324FF0FF330D4601F0CBF9611C1A
:1050300030606A1E0C3018F0FBFD31680448BDE892
:10504000704018F0DDBD00BF5C130020D20C0200E0
:10505000B006002073B50C4600294BD02F4D2868B0
:1050600000283DD12E4E019100964FF0FF324FF0B7
:10507000FF33022001F0BEF9286000283AD0037EF9
:10508000284A022B0ED0042B15D033B100231380F5
:1050900013F0CEF800232B6014E0022CF6D9B3787D
:1050A00003330EE0032CF1D9738804339BB21380D1
:1050B000002BEDD006E0032CE8D97388C3F30D0371
:1050C000043313802968A9B1164C0A8A23889A42AE
:1050D00010D1154818F094FD00232B60238009E0BF
:1050E0000C3018F0B6FDA042286810D213F0A0F8DA
:1050F00000232B60002301930C480D4B00930849BB
:10510000007B01234022FFF717FD02B070BD044968
:1051100022460C3018F08CFDD4E700BF5813002055
:105120002A3D00200C350020C80600201400002075
:1051300055500000013910B505292DD8DFE801F0E0
:10514000192C030F201C154B1A782ABB012119704A
:10515000134BBDE81040187B1146FFF77BBF104C86
:105160002079FFF75BFD207DFFF758FD207BFFF7DF
:1051700055FD0A4B00221A70BDE81040FFF734BFFE
:10518000084BBFF35B8F012253E8001F43E8002068
:105190000028F9D1BFF35B8F10BD00BF6A3D00202E
:1051A0001400002068130020F0B589B001F0C0F8A9
:1051B0002A4801F065F9044600284BD10026002753
:1051C0006FF00705CDE90205CDE900000490CDE9B7
:1051D0000667234B234924484FF4806216F050FEA3
:1051E0002249214819F0B0FA214B22490094CDE917
:1051F0000667CDE90354CDE901444FF400721E481F
:1052000016F03EFE1D491C4819F09EFA1C4B1D4924
:105210000094CDE90667CDE90354CDE901444FF48C
:105220000072194816F02CFE1849174819F08CFA2C
:10523000174B18490094CDE90667CDE90354CDE931
:1052400001444FF40072144816F01AFE1349124834
:1052500019F07AFA204609B0F0BD00BFE006002040
:105260001D4E000080460020780A0020A20C02009B
:10527000714F000040440020F8090020AC0C0200EF
:10528000C54D00000042002078090020B60C020045
:10529000914D0000C03F0020F8080020C30C020020
:1052A0002DE9F84305464FF02003EFF3118683F311
:1052B0001288BFF36F8F0E4B0E4F1C68DFF83880DB
:1052C0004FF00C092CB986F31188BFF36F8FBDE83E
:1052D000F883D4E90123002D18BF13462BB198F8A9
:1052E000142009FB02F2B85C98472468EAE700BF83
:1052F0008413002078130020CC34002070B5194BA3
:105300001C7DBFF35B8F04F01F0301229A40164BF4
:10531000610903EB8103D04353E8001F01EA000554
:1053200043E80056002EF7D1BFF35B8F0A4213D03B
:105330000E4B0F4D8BB10C236343EA18E85C517898
:1053400018F096FB0020FFF7ABFF0C235C432A19F3
:1053500000232B51C2E9013370BD83F31188BFF3E1
:105360006F8FEFE7CC3400208C13002071DA01003E
:10537000781300202DE9F041354B07461D7D4FF095
:105380002003EFF3118883F31288BFF36F8F0C248F
:10539000304B314E6C431A19195D00294CD007CAA5
:1053A00006EB040C8CE8070000221A5588F31188DC
:1053B000BFF36F8F0C236B43F218F05C002839D0D9
:1053C0007B1C10D0D2F808C0244C254A4FF4004072
:1053D0000021ECFB004100232046FBF791FE012158
:1053E000381A19F07CFC17F0CBFA0120FFF758FFB0
:1053F000BFF35B8F1B4B6A0903EB820305F01F01B0
:1054000001228A4053E8000F104343E800010029BD
:10541000F8D1BFF35B8F144B3BB10C2303FB05F0BA
:105420003318305C597818F017FBFFF767FF17F057
:10543000BBFA0120BDE8F0810146284600F016F8CD
:105440000028B3D007C8344484E80700AEE700BFA3
:10545000CC3400206C130020781300203F420F0052
:1054600040420F008C13002059DA01002DE9F04F63
:1054700085B00E4603A900F043F81E4B039DD3F8F8
:1054800000A0DFF87480431E1BB203EB4303044605
:1054900005EB83054FF400474FF0000B24B9A146FC
:1054A000484605B0BDE8F08F6868144AC4465946BE
:1054B000E0FB07C100236046FBF722FE0190A868CD
:1054C0000E4AC4465946E0FB07C100236046FBF77D
:1054D00017FEBAF1FF3FA94601D0824505D9731CDA
:1054E000DED0019B1844B042DAD9013CA4B20C3D95
:1054F000D4E700BF3C0000203F420F0040420F00B5
:1055000008B9024B0B600020704700BFD8F30100C0
:10551000F7B51E4B10F5804041F1000100224FF01D
:10552000FF341D6845B1D3E90265864275EB01077A
:10553000BEBF1446304629460132052A03F118033E
:10554000EFD1134B0029B8BF00206FF00102B8BFA4
:1055500001465C63121A4FF0FF3363EB01034FF017
:10556000FF304FF0FF31CDE90001094817F04AFD47
:10557000084B186838B1084B19688368DB6803B0BA
:10558000BDE8F040184703B0F0BD00BF300B00206D
:10559000F80A0020941300209013002010B5406BEF
:1055A000431C05D018230A494343CA18CB582BB9CA
:1055B00017F0A2FCBDE81040FFF7AABF53691BB16A
:1055C000BDE81040116918470120FEF7A3FC00BF99
:1055D000300B00201FB590B102228DF80C2083689B
:1055E00000224FF40271CDE900210292084A9B6823
:1055F000106069469847074B0028186005DB06488D
:105600000649002219F0B3FB002005B05DF804FB49
:105610009413002090130020F80A00209D550000EC
:1056200004282DE9F041044626D817F0A9F917F00F
:1056300063FC18225443124B53F804E01F19002452
:105640004FF4004C05460E4640F2E73021464FF439
:105650007A720023EEFB0C01FBF752FD401946EB7A
:105660000101C7E9020128463146FFF751FF17F053
:105670009BF92046BDE8F0816FF01500FAE700BF06
:10568000300B0020F8B540B3154B00244FF0180C38
:105690000CFB04F6F5189F59CFB92A6198514FF0C9
:1056A000FF324FF0FF33C5E9022369610D4D2B78BE
:1056B00043B90D4B186828B1836802211B689847CD
:1056C00001232B702046FFF7ABFF2046F8BD0134C5
:1056D000052CDDD16FF00B04F7E76FF01504F4E74C
:1056E000300B00206B3D0020941300200149102254
:1056F0000A60704710ED00E072B6404080F31188F8
:10570000BFF36F8FBFF34F8F30BF62B6BFF36F8FA2
:10571000704700BF72B6494081F3118820BF80F303
:10572000118862B6704700BF40B2002807DB044A08
:105730004109012300F01F00834042F821307047E7
:1057400000E100E040B200280CDB4309064900F00C
:105750001F0020330122824041F82320BFF34F8FE6
:10576000BFF36F8F704700BF00E100E0054B4209B7
:1057700000F01F0053F82220012303FA00F010402C
:10578000704700BF00E100E040B20028A8BF00F170
:10579000604001F10101B8BF064B4FEA4111ACBFB7
:1057A00000F5614000F00F00C9B2B4BF195480F891
:1057B0000013704714ED00E008B572B6044B9A6907
:1057C0001AB100229A6118F0C6FF62B608BD00BF88
:1057D000CC34002030BFFFF7FDBF00BF0F4A08B533
:1057E0000F4B22F07F029A60BFF34F8FBFF36F8F92
:1057F000D3F8882022F47002C3F88820EFF31483D2
:1058000023F0040383F31488BFF36F8F16F002FABA
:1058100017F020FA00F020FA16F040FA001000000D
:1058200000ED00E0094A0A4993680968D967094907
:1058300098674B6843F080534B60002383F31188D3
:10584000BFF36F8F9368D86F704700BFCC340020D0
:10585000D40A020000ED00E012498A684FF03000DF
:105860001044EFF3098C80E8F01F202080F31288A9
:10587000BFF36F8F0C4F4FF00066CA698A603E60BD
:10588000906F0023936780F3118804B5104600F0F1
:1058900029FABDE8044002F1300090E8F01F8CF3D3
:1058A00009887047CC34002004ED00E01EF0040F9E
:1058B0000CBFEFF30880EFF30980816911F8021C37
:1058C0000229FFD001B518F084F801BD42F8203C50
:1058D000009B42F81C3C0A49019B42F8183C029B81
:1058E00042F8143C21F001014FF0807342F8043C6F
:1058F00042F8081C0023203A02658367704700BF06
:1059000037D20100094A0346906870B113F1160FAF
:10591000806E05D0A0F140029A4205D8834203D29E
:10592000814228BF0020704700207047CC340020FF
:1059300008B5094B98600D46144600F0D3F920468F
:1059400085F30988002163B681F31188BFF36F8F57
:105950000022002317F06FFCCC34002001B572B692
:105960000B4A906900281EBF0021916118F0F3FED8
:1059700062B6EFF30580A0F110004FEAC0000549C0
:10598000014409C99847BDE80140034908470000A0
:10599000CC34002034F101009D590000044B99687B
:1059A000D869884203D003494FF080520A6070479B
:1059B000CC34002004ED00E070B5264B15469A6A01
:1059C00012F0100F9A6A14BF1124102412F0080F5D
:1059D0009A6A18BF1224920706460AD5586B9A6A2B
:1059E000140634D519B19A6A22F080029A621324FF
:1059F00001E06FF01500174B9A6A12F0010F9A6AD6
:105A000018BF142412F0200F9A6A18BF1524D2066A
:105A100002D49B6A9B070AD50E4B5B68190506D515
:105A20003146FFF76FFF10B180F309880224094B5C
:105A30009A6A920642BF5A6A22F400525A629A6ADD
:105A400042F0FF029A6200232B70204670BD6FF077
:105A50001500CCE700ED00E0134B9A6A12F0007FCE
:105A60009A6A14BF1E201D2012F0807F9A6A18BF08
:105A70001F2012F4002F9A6A18BF212012F4802FE1
:105A80009A6A18BF222012F4003F9A6A18BF232096
:105A900012F4803F9A6A6FEA02426FEA12429A62F7
:105AA00018BF2420704700BF00ED00E010B5194B6F
:105AB0000246986A9C6A10F4805F14BF1720162073
:105AC00014F4006F9C6A18BF1820A40509D5986BC0
:105AD000986A000404D51AB19A6A22F400429A62C4
:105AE00019200C4B9A6A12F4806F9A6A18BF1A2018
:105AF000D2050CD49B6A13F4005F18BF1C20054A22
:105B0000936A43F47F43936200230B7010BD1B2004
:105B1000F5E700BF00ED00E070B5454B5B688AB06B
:105B20000546C3F30803002686F31188BFF36F8F81
:105B300002F07F40B0F17F4F11D102F00C00082835
:105B40000DD010074CBF0D4601260022033B8DF8F7
:105B50000720032B05D8DFE803F01E5D615A3546A8
:105B6000F3E700249DF807309BB92022294602A8BC
:105B700017F05EFF099B002E54D0C3F3080222B930
:105B80006FEA53236FEA4323099302A9204617F0D3
:105B90001EFF0AB070BD264BDA6A9107E1D4DA6ABB
:105BA000002ADEDBDA6A5200DBD55A69A96942F4C1
:105BB00080725A61BFF34F8FBFF36F8F5A6931F80C
:105BC000021C22F480725A61BFF34F8FBFF36F8FB4
:105BD0004DF6027291420AD09A6AD2B24AB10DF1E0
:105BE000070201212846FFF7E7FE0446BAE72C68C2
:105BF000B8E79A6A12F47F4F05D00DF10701012032
:105C0000FFF754FFF1E79B6AB3F5803FA9D3FFF795
:105C100023FFEAE70DF107020021E3E70DF1070199
:105C20000020EDE723F4FF7323F00103ACE700BF8E
:105C300000ED00E0024A536943F0100353617047DE
:105C400000ED00E0EFF30880EFF3098101B5724643
:105C5000FFF762FF01BD00BF044800232021C218E6
:105C60000133302B82F80013F9D1704700E100E0D6
:105C7000FEF764F9202080F3118808484FF404618E
:105C8000401880F30988EFF314800221084380F361
:105C90001488BFF36F8FFFF7A1FD0000805600202E
:105CA000084B9B6883420BD1EFF3058343B1064B4E
:105CB0005A6842F080525A605A6A22F400425A628C
:105CC00016F056BFCC34002000ED00E0024B034A32
:105CD0000348012100F070B80000042000000020FB
:105CE000D8F30100826E054B403A1A60044A402105
:105CF000C3E901121846012100F068B8981300208A
:105D000000000B15F0B5204E00258D4239DA4468AD
:105D100074B353B104F1FF3C14EA0C0F2FD11F2CC4
:105D20002DD907681CEA070F29D1202C0768D0F865
:105D300008C05FFA82FE1ED9B4F1004F1DD8013CA5
:105D4000B4FA84F4C4F11F046400BEF1070F4CEAF6
:105D5000040C14D827F01F04144344F01004C6F8B0
:105D60009820C6F89C404CF00104C6F8A0400132CF
:105D700001350C30C9E70824E7E73E24E5E76FF07A
:105D800015021046F0BD00BF00ED00E0044B0522F7
:105D9000C3F89420BFF34F8FBFF36F8F704700BFDE
:105DA00000ED00E0BFF35F8F024B0022C3F89420A8
:105DB000704700BF00ED00E010B5034C01232278CE
:105DC000FFF7A0FF207010BD6C3D002008B5094A08
:105DD00000231278FFF796FF10F1160F02D0064A43
:105DE000072800DD08BDC2F89800C2F8A0300130D5
:105DF000F6E700BF6C3D002000ED00E014490868A4
:105E0000082810B521D8FFF7CDFF124C49680022B1
:105E1000904201F10C0105D10F4B1870FFF7B6FF4E
:105E2000002010BDC4F8982051F80C3C23F01F034B
:105E3000134343F01003C4F89C3051F8043C43F082
:105E40000103C4F8A0300132E2E74FF0FF30E8E789
:105E5000E4F3010000ED00E06C3D002010B54FF0D0
:105E60002003EFF3118083F31288BFF36F8F114A81
:105E70000123C2F840354FF080424FF08051C2F804
:105E80007835D1F83041082C08D1D1F834110529E2
:105E900004D8094C615C09B1C2F838364FF0804330
:105EA0000122C3F8802580F31188BFF36F8F002093
:105EB00010BD00BF00E00140080D02004FF080431C
:105EC000C0B2C3F81C05BFF34F8F0549054BCA6824
:105ED00002F4E0621343CB60BFF34F8F00BFFDE7D6
:105EE00000ED00E00400FA0520B1034B800143F00F
:105EF00001031847704700BFD0F301004FF0804303
:105F0000D3F84036DB072ED54FF01023D3F80433F7
:105F100003F00703072B26D1144A0123C2F80435E6
:105F2000D2F80034002BFBD04FF01021D1F804330D
:105F300023F0070343F00403C1F804330023C2F83D
:105F400004350A4AD2F80034002BFBD0BFF34F8F40
:105F50000749084BCA6802F4E0621343CB60BFF301
:105F60004F8F00BFFDE70020704700BF00E00140F9
:105F700000ED00E00400FA05022806D804490022DA
:105F800051F82000002317F030BE0020704700BFFA
:105F900004F40100024B0146186817F031BE00BF3F
:105FA000AC1300200B4602490246086817F022BED7
:105FB000AC130020024B0146186817F021BE00BF49
:105FC000B01300200B4602490246086817F012BEC3
:105FD000B01300200FB407B504AB4FF4007153F8B1
:105FE000042B07480193FDF7BFFA011E03DD0448A7
:105FF000012217F08FFD03B05DF804EB04B0704789
:106000006D3D002021B9044B1A6802B91860704731
:106010000129FCD1014BF7E7A8130020A4130020AD
:106020002DE9FF410F461E4946780988ADF8041056
:1060300000218DF80610AC21ADF808104FF00001DA
:1060400062F345110393054606F10A034FF0040875
:1060500001208DF80B808DF809108DF80A30FFF7BC
:106060008BFF0446C0B108220DEB020117F04DFD75
:1060700042463946204617F048FDF21CD2B2294666
:10608000204617F042FD204603220DEB080117F0D1
:106090003CFD2046FFF77EFF04B0BDE8F08100BF65
:1060A000C8F3010030B585B00023CDE902338DF887
:1060B0000730037E0546052B3BD8DFE803F03F4160
:1060C000030338380223BDF808208DF80730042375
:1060D0008DF80B3001F001035B0322F4035222F030
:1060E0003F0243F0AC031343ADF808302B8A012084
:1060F00001338DF80A30FFF73FFF0446E0B1082274
:106100000DEB020117F001FD0DF107012046012200
:1061100017F0FBFC2A8AE968204617F0F6FCE368D2
:106120009DF807201A722046FFF734FF04E005238C
:10613000C9E70448FFF74EFF05B030BD0123C2E7B1
:106140000423C0E7190D020073B515460E4A00235B
:10615000CDE900230E468DF804008DF802508DB174
:106160000120FFF709FF044660B10822694617F0D5
:10617000CCFC26B12A463146204617F0C6FC204604
:10618000FFF708FF02B070BDAC800004014B187827
:10619000704700BF7C3F00207FB500231448009368
:1061A00007226946ADF804308DF8063017F030FC50
:1061B00028B91048FFF70EFF07B05DF804FB0E4842
:1061C0000722694617F024FC0028F2D0084907226C
:1061D00002A817F02DFC084907220DF10F0017F057
:1061E00027FC81200E2202A9FFF7AEFF0348E1E75A
:1061F000753F00203D0D02006E3F00205B0D020048
:1062000038B50A4D04460622284617F011FC084B03
:10621000AC711A7832B1FFF7BFFFBDE838400548CE
:10622000FFF7D8BE01221A70F7E700BF753F0020C4
:106230006D3F00206B0D020038B50A4D0446062262
:10624000284617F0F5FB084BAC711A7832B1FFF70E
:10625000A3FFBDE838400548FFF7BCBE01221A7015
:10626000F7E700BF6E3F00206D3F0020800D020069
:10627000032810B412D005D8012808D002280AD06B
:1062800010BC7047FF28FBD110BCFFF75DBF054B6A
:106290000A781A70F4E710BCFFF77EBF10BC0846FE
:1062A00017F059BC7C3F00202DE9F8431D4FDFF863
:1062B0007880DFF878904FF0FF304FF0FF31FFF734
:1062C00081FE05460028F6D0C46894F90130627852
:1062D000002B04F1080608DAA27820793146FFF78E
:1062E000C7FF284611F0A4FFE5E73B780F2BF8D94C
:1062F000D907F6D5920608D5D9F80030002BF0D092
:106300006268A17830469847EBE7D8F80030002B58
:10631000E7D06268A1783046984763789B06E0D55D
:10632000EAE700BF7C3F0020A8130020A413002050
:10633000124A134910B500231370124A1160124A11
:106340001249116088B0124C0493002000216FF0B4
:106350000702CDE90601CDE90232CDE900330D494E
:106360000D4B4FF40072204615F08AFD0B49204674
:1063700008B0BDE8104018F0E7B900BF7C3F00202E
:1063800080060020B0130020AC13002098060020E7
:10639000A80B0020C04A0020A9620000960D020050
:1063A000074A0346106828B9D96831B1596921B143
:1063B000136070476FF0770070476FF015007047FB
:1063C000B4130020052838B5054608D82A21C14055
:1063D000C90704D5064817F008FC044610B9002484
:1063E000204638BD00210C3017F006FC2576F7E773
:1063F000680700202DE9F0410546DDE9068750B128
:10640000022804D1124817F0F0FB044628B90024F2
:106410002046BDE8F0810F48F5E700F10C060021A9
:10642000304617F0E9FB2576B8F1000FF0D0002FC9
:10643000EED0304617F00DFCB84203D2204611F0E2
:10644000F7FEE4E73A464146304617F0F1FBDFE756
:10645000100700203C07002008B5034B01461868D0
:1064600017F0CEFB002008BDB8130020038A1BB133
:10647000024B1B685B69184712207047B413002059
:10648000044B054A1B6810600BB1DB6818476FF0BE
:1064900012007047B4130020B81300202DE9F0411A
:1064A0001646C21D22F00302751E0F46ADB21860DB
:1064B00082B0044616800021042207FB050017F075
:1064C000C2FABDB1023EB6B206FB077306FB07F87F
:1064D0001C44A8EB03080025042204EB08000DEB84
:1064E0000201019417F0A4FAB542A4EB070405F1E8
:1064F0000105F1D102B0BDE8F08100BF70B50568BB
:1065000082B09DB1EB1D23F003030422044629460B
:106510000DEB02001E8817F08BFA019B2BB107339D
:1065200023F00303013E1E80019B2360284602B036
:1065300070BD00BF70B50B680C46054683B10733CC
:1065400023F003031E880136B6B2042221462846F2
:1065500017F06EFAEB1D23F003031E80256070BD5B
:106560000126F2E702FB0100704700BF401A90FBD2
:10657000F2F080B2704700BF531E11449BB242B18B
:10658000DB430138CA1811F8013D00F8013F914280
:10659000F9D17047014402E010F8013B1BB9884271
:1065A000FAD1002070470120704700BF10600860DA
:1065B000704700BF0A6803460068904205BF00228A
:1065C0000A6000201A607047D2F800C0CCF80000C2
:1065D000D2F800C0CCF8041010607047884203D095
:1065E0001AB1436813607047002070470B688342FC
:1065F00009D02AB1586810601A680A6018467047B6
:10660000002BF9D1FAE70023F8E700BF2DE9F041AC
:10661000DFF830800C4E0C2706F130044546221D71
:10662000214628460C3CFFF7C1FFA642A5F108050C
:10663000F5D1043F3B1DA8F12008A6F13006EBD1AF
:10664000BDE8F08138140020C414002010B40346C3
:106650008C469AB101EB4101144803EB4304090154
:1066600001EB84010144487A0C7AA04204BF013056
:10667000087210BC6146184611F046BB01EB41029E
:106680000A4C120100EB400302EB830323449C7A83
:10669000DA7AA24201D010BC704701329A72044BE0
:1066A00001225A5410BC11F083BB00BF40140020DB
:1066B000BC130020F8B506461C460D4602B32278EE
:1066C0006378D21A12F003023AD1274F71004FEAD1
:1066D000450C3144AC44890001EB0C110133043109
:1066E000DBB27A18606823702146FFF76DFF1F4BFD
:1066F00001225A552946304611F05AFB0020F8BDB8
:1067000011F040FB0028DAD02946304611F01AFB80
:106710000028D4D005EB450206EB4601124F637802
:10672000120102EB81023A447100907AD27A9042CF
:106730004FEA450C0CD02078C01A10F00302C8D0E4
:10674000012A03D00133DBB22370D0E71046F8BD35
:106750002278D21A920702D00233DBB22370D4E936
:1067600002039847CAE700BF40140020BC13002072
:106770002DE9F04FDFF8409119F8003089B0002B77
:1067800060D0DFF838A103903C220423002500EB01
:10679000400B12FB00330324CDE9045509F80050E7
:1067A0000AEB0B1B029325465C460023DBF82810FE
:1067B00054F8240F079307AAFFF710FF0195074627
:1067C000002F4BD0079D68782E78361A06F0030606
:1067D000012E07D101386870079BD3E9020398475F
:1067E000079D68782B78DBF828C0181A00F00300A2
:1067F00001284FF0000221465FFA83F860460DD071
:10680000FFF7F4FE69782A786F60521A02F00302EB
:10681000012A85F8018018D0DBF828C0DBF82400B5
:1068200007AA6146FFF7DAFE012E0746C8D1019D8F
:10683000002D3DD0039F012309F807303946384623
:1068400011F0B6FA09B0BDE8F08F029B69703846C6
:1068500029460AEB0302FFF7B7FEDDE7019D9BF82F
:106860002E309BF82F209A4203D08BF82F30012333
:1068700004939BF82C309BF82D209A4203D08BF880
:106880002D3001230593013DEDB2FF2DABF10C0B33
:106890008AD1DDE90425039F002AD3D0002DD1D170
:1068A0002A463946384609B0BDE8F04F11F02CBAF7
:1068B0000028D4D0BEE700BFBC1300204014002045
:1068C0004B1EDBB271B1411E00EB030C002011F82E
:1068D000013F23B15A1E01301340C0B2FAD16145C5
:1068E000F5D17047084670472DE9F04F074683B051
:1068F00003260125042138460DF01EFFD7F800C0FD
:1069000000204FEADC741F234FF0010E83468246BD
:1069100008E01C2B40F2808119294BD04FF0010E6A
:1069200008461446013BDBB2FF2B4AD02CFA03F297
:1069300002F0010294420CD0411C0E2BC9B271D955
:10694000002AE6D01C2B40F26481192932D09646E9
:10695000E6E70EF10108072B5FFA88F810D9B8F1C5
:10696000060F00F24B81002A40F03981B8F1060F82
:1069700000F006811C2B40F2FB800146C646CFE7A3
:10698000002A40F00281B8F1060F40F2EC804FF08F
:10699000010E0EFA03F20BF1010B01304CEA020C6E
:1069A0005FFA8BFBC1B2D1467246CA4500F09180B6
:1069B0001929B5D1013305FA03F34AB35B420CEA56
:1069C000030CA14B8CEA0303019301A802AC002243
:1069D00010F8013B23B1591E01320B40D2B2FAD15B
:1069E000A042F5D1012A09D91FFA8CF3B3EB1C4F51
:1069F00012D15FFA8CF3B3EB1C6F0DD1013E16F090
:106A0000FF067FF477AF6FF00D0003B0BDE8F08FA5
:106A1000013B4CEA030CD4E70020C7F800C003B0E8
:106A2000BDE8F08F0AF10109072B5FFA89F900F23E
:106A30009180002A73D1052B5FD914464FF00108CD
:106A4000012902D02246C6460DE0CCB105FA03F278
:106A5000072B2CEA020C88BF002221D9A0421AD0B1
:106A600001460E2BA1D91929A4D0B9F10C0FA1D040
:106A7000CA4655E7B8F1060F4ED009B101294BD1EE
:106A800005FA03F2072B4CEA020C1AD90C46A04275
:106A90004FF00102E4D1611CC9B24FF0010EE0E7F2
:106AA0000BF1FF3BA0425FFA8BFB20D00022CA45CE
:106AB00017D0014634E74FF0010801292CD14CF0E2
:106AC000200C0BF1010B88425FFA8BFB06D00122F0
:106AD000EDE709F101095FFA89F9C4E704460122EB
